:1000000005308A000C2D0000CE272022412A410015
:10001000D6224C1DA012EC3AFC12EC3A0000C82289
:100020004C264F10D72752264400522C20274F220F
:100030004500542C20274F224500FF3083168500B1
:1000400000308800091089100911DB3086009730D4
:1000500087008312A0009412A01220088316870044
:10006000831220162008831687008312A01120080F
:100070008316870021308312940040308316940049
:10008000E03083128B048A110A121D2D831606118B
:1000900083120615831606118312061183160611A4
:1000A000831206151030F700F70B54280000831652
:1000B0000611831206111308023093008316140CE4
:1000C000031C5F288312520893008316140C031C30
:1000D00066288312530893008316140C031C6D28A2
:1000E0000611831206151030F700F70B7528000073
:1000F0000800473084008313000803198C28063059
:10010000F800F701F70B8228F80B81287B30F70005
:10011000F70B8828800B7F280800831606118312AE
:100120000615831606118312061183160611831213
:1001300006151030F700F70B9B28000083160611F8
:10014000831206111308C03093008316140C031C8D
:10015000A6280611831206151030F700F70BAE28FB
:1001600000000F30D2008030D30046206430C7003A
:1001700079202830D2000230D30046202930D20026
:10018000A030D30046202A30D2000130D3004620D0
:100190002B30D2000130D30046202C30D200D301C6
:1001A00046200F30D200D30146203530D20008302F
:1001B000D30046208A110A121E2D8612F0308316B3
:1001C0008805831243088039F700770DF70103187B
:1001D0007714771C88117718881543084039F70081
:1001E000F70EF70CF70C0330F705771C081177189A
:1001F000081543082039F700F70EF70C0730F7050C
:10020000771C88107718881443081039F700F70E08
:100210000F30F705771C08107718081408161029F6
:1002200011290000081243080839F700F70CF70CF1
:10023000F70C1F30F705771C8811771888154308CD
:100240000439F700F70CF70C3F30F705771C08115D
:100250007718081543080239F7000310F70C771CCC
:1002600088107718881443080139F800781C0810A2
:100270007818081408163C293D290000081242305D
:10028000F700F70B412900000F3083168804831212
:1002900008006430C7007920E030831688050330F9
:1002A00083128800081654295529000008120530C9
:1002B000C700792008165C295D2900000812A630C5
:1002C000F700F70B6129000008166629672900006E
:1002D00008124230F700F70B6B290000023088004B
:1002E000081672297329000008124230F700F70B34
:1002F000772900002830C300DD200130C300DD2055
:100300000230C70079200C30C300DD200630C30066
:10031000DD208A110A121F2DC10141080F3C031C68
:100320009929213041078400831320308000C10ABD
:100330008D290800310884008313321883174A0876
:100340008000840A8001B10A0319B20A08000B0870
:10035000BD008B13831603178C170C1400000000CC
:1003600083120313BD1B8B1703170C087F39031966
:10037000FB290313BD0003170D080313BE00031769
:100380000F080313BF003D08CA009A213E08031757
:100390008D0003133F0803178F0003130B08C000E1
:1003A0008B13831603178C170C14000000008312A4
:1003B0000313C01B8B1703170C0D0E0D7F39031988
:1003C000FB290313BD0003170D080313BE00031719
:1003D0000F080313BF003D08CA009A213E08031707
:1003E0008D0003133F0803178F008D0A03198F0A2E
:1003F0000313A729031703130800C6014508460283
:1004000003187C2A46084307840083134418831783
:100410000008C7004708C8008616F0308316880514
:10042000831248088039F700770DF7010318771415
:10043000771C88117718881548084039F700F70E9F
:10044000F70CF70C0330F705771C0811771808151F
:1004500048082039F700F70EF70C0730F705771C2E
:1004600088107718881448081039F700F70E0F30F5
:10047000F705771C08107718081408163F2A402A39
:100480000000081248080839F700F70CF70CF70CC1
:100490001F30F705771C881177188815480804392C
:1004A000F700F70CF70C3F30F705771C08117718A9
:1004B000081548080239F7000310F70C771C88105C
:1004C0007718881448080139F800781C0810781843
:1004D000081408166B2A6C2A000008124230F70034
:1004E000F70B702A00000F30831688040530831242
:1004F000C7007920C60AFE2908008030C300DD202D
:100500003E08C4003D08C3001030C500FD210800AE
:100510002C30D200D3014620831606118312061513
:10052000831606118312061183160611831206150F
:100530001030F700F70B9A2A000083160611831279
:1005400006111308033093008316140C031CA52A0C
:100550008312500893008316140C031CAC2A8312D8
:10056000130893018316140C031CB32A8312130877
:10057000D10083160611831206151030F700F70B11
:10058000BF2A00005108F8000800C9010408C8008B
:100590004910831B4914420EF038C400C407E23EE0
:1005A000C500323EC70042080F39C507C507C70757
:1005B000E93EC600C607C607410E0F39C607C70782
:1005C000C60DC70DC709C70D41080F39C707C40DB0
:1005D0000730C3000A30C707C603031CEB2AC6074F
:1005E000C503031CEF2AC507C403031CF32AC40771
:1005F000C303031CF72A43308400831307304805E4
:100600004813840747300402031948170008F7000D
:10061000031D122B481B122B481A242BC819122B0E
:100620002030152BC81548123030F707C2010408D6
:10063000C1004210831B42147708CA009A21410866
:100640008400831342188317840A481F022B080072
:100650008C21B2012130B100153003178D0000301C
:100660008F000313A721BE012130BD007D22BE01F2
:100670000130BD00C0013330BF00C2013B30C100BA
:100680003E08CD003D08CC00CE01CC08031D4D2B0B
:10069000CD08031D4D2B6030CE044E08D1006030D4
:1006A000D2004E08D30046204E08D1007030D20050
:1006B0004E08D30046202030D200FF30D300462021
:1006C0002130D200FF30D3004620CF01D0014D0CA5
:1006D000D2004C0CD100D20CD10CD20CD10C1F305A
:1006E000D205FA015108CF044C080739D100D201D4
:1006F000510DF900520DFA00F90DFA0DF90DFA0D30
:10070000F90DFA0DF90DFA0DE030F9057908D0046C
:10071000D2014F08D30046200130D2005008D30048
:1007200046208316061183120615831606118312BE
:10073000061183160611831206151030F700F70B09
:100740009F2B000083160611831206111308033035
:1007500093008316140C031CAA2B831213082C304D
:1007600093008316140C031CB22B831213089301FD
:100770008316140C031CB92B83121308CC008316A8
:100780000611831206151030F700F70BC52B000079
:100790004C080139F800F808031DD12B0030F8008F
:1007A000792CCB014B08073C031CEE2B43304B0745
:1007B000F800FA010318FA0A7808CC007A08CD008C
:1007C00066304B07CE00D00088224C08840083138B
:1007D0004D18831778088000CB0AD22BC108031D5F
:1007E000F42BC2080319582C4108840083134218C3
:1007F0008317840A8001840380014208FA004108BB
:10080000CC004208CD0041088400831342188317AE
:10081000840A0008CF0084030008CE006130D000B5
:100820008822D101780DF900510DFA00F90DFA0D69
:10083000F90DFA0DF830F90579084E04F7007A0839
:100840004F04FA004C08840083134D188317840A60
:100850007A0880008403770880004208FA00410883
:10086000CC004208CD00410884008313421883174E
:10087000840A0008CF0084030008CE006230D00054
:1008800088227808E039F700F70EF70C0730F705F3
:1008900077084E04F7004F08FA004C0884008313D1
:1008A0004D188317840A4F0880008403770880005E
:1008B0004008CD003F08CC00CF014330CE000830C7
:1008C000F8004E08840083134F1883170008F700C0
:1008D0004C08840083134D18831777088000CC0AD6
:1008E0000319CD0ACE0A0319CF0AF80B612C013087
:1008F000F800F8080319052D3608BE003508BD00BC
:100900003C08C0003B08BF008C21B2012130B1007F
:10091000083003178D0000308F00031005300313DB
:10092000C1000B08C2008B13831603178C170C141D
:100930000000000083120313C21B8B170318C82C7E
:1009400003170C087F390313C20003170D080313A4
:10095000C30003170F080313C4004208CA009A21FA
:10096000430803178D000313440803178F00031374
:100970000B08C5008B13831603178C170C1400008B
:10098000000083120313C51B8B17C10BC82CE72C67
:1009900003170C0D0E0D7F390313C20003170D084A
:1009A0000313C30003170F080313C4004208CA004F
:1009B0009A21430803178D000313440803178F007F
:1009C0008D0A03198F0A03100313C10B912C1030E9
:1009D00084003E08C2003D08C100C5227C30CA0028
:1009E0009A21103084004008C2003F08C100C5228F
:1009F000C2012130C100AF30C300DD204208C40075
:100A00004108C3001030C500FD210A30C70079201D
:100A1000372B8A110A12362D03081F398300FF3045
:100A2000A000B201B10183161F149F141F159F115E
:100A300007309C00831383121D288D2849298C219F
:100A4000B2012130B1000F3003178D0000308F004C
:100A50000313A721BE012130BD007D220230B30067
:0E0A6000FA30C7007920B30B302D282B63002D
:02400E00323F3F
:00000001FF
;PIC16F877A
;CRC=E462  CREATED="30-out-16 23:09"
