:1000000004308A00212C0000CE272022412A410002
:10001000D022441DA012EC3AFC12EC3A0000C82297
:100020004C264F10D72752264400522C20274F220F
:100030004500542C20274F224500FF3083168500B1
:1000400000308800091089100911DB3086009730D4
:1000500087008312A0009412A01220088316870044
:10006000831220162008831687008312A01120080F
:100070008316870021308312940040308316940049
:10008000E03083128B048A110A12322C8316061177
:1000900083120615831606118312061183160611A4
:1000A000831206151030F700F70B54280000831652
:1000B0000611831206111308023093008316140CE4
:1000C000031C5F288312470893008316140C031C3B
:1000D00066288312480893008316140C031C6D28AD
:1000E0000611831206151030F700F70B7528000073
:1000F00008004C3084008313000803198C28063054
:10010000F800F701F70B8228F80B81287B30F70005
:10011000F70B8828800B7F280800831606118312AE
:100120000615831606118312061183160611831213
:1001300006151030F700F70B9B28000083160611F8
:10014000831206111308C03093008316140C031C8D
:10015000A6280611831206151030F700F70BAE28FB
:1001600000000F30C7008030C80046206430CC004B
:1001700079202830C7000230C80046202930C70047
:10018000A030C80046202A30C7000130C8004620F1
:100190002B30C7000130C80046202C30C700C801F2
:1001A00046200F30C700C80146203530C700083050
:1001B000C80046208A110A12332C8612F0308316AA
:1001C0008805831248088039F700770DF701031876
:1001D0007714771C88117718881548084039F7007C
:1001E000F70EF70CF70C0330F705771C081177189A
:1001F000081548082039F700F70EF70C0730F70507
:10020000771C88107718881448081039F700F70E03
:100210000F30F705771C08107718081408161029F6
:1002200011290000081248080839F700F70CF70CEC
:10023000F70C1F30F705771C8811771888154808C8
:100240000439F700F70CF70C3F30F705771C08115D
:100250007718081548080239F7000310F70C771CC7
:1002600088107718881448080139F800781C08109D
:100270007818081408163C293D290000081242305D
:10028000F700F70B412900000F3083168804831212
:1002900008006430CC007920E030831688050330F4
:1002A00083128800081654295529000008120530C9
:1002B000CC00792008165C295D2900000812A630C0
:1002C000F700F70B6129000008166629672900006E
:1002D00008124230F700F70B6B290000023088004B
:1002E000081672297329000008124230F700F70B34
:1002F000772900002830C800DD200130C800DD204B
:100300000230CC0079200C30C800DD200630C80057
:10031000DD208A110A12342CC60146080F3C031C4A
:100320009929213046078400831320308000C60AB3
:100330008D290800310884008313321883174F0871
:100340008000840A8001B10A0319B20A08000B0870
:10035000C2008B13831603178C170C1400000000C7
:1003600083120313C21B8B1703170C087F39031961
:10037000FB290313C20003170D080313C30003175F
:100380000F080313C4004208CF009A214308031743
:100390008D000313440803178F0003130B08C500D7
:1003A0008B13831603178C170C14000000008312A4
:1003B0000313C51B8B1703170C0D0E0D7F39031983
:1003C000FB290313C20003170D080313C30003170F
:1003D0000F080313C4004208CF009A2143080317F3
:1003E0008D000313440803178F008D0A03198F0A29
:1003F0000313A729031703130800CB014A084B0274
:1004000003187C2A4B084807840083134918831774
:100410000008CC004C08CD008616F0308316880505
:1004200083124D088039F700770DF7010318771410
:10043000771C8811771888154D084039F700F70E9A
:10044000F70CF70C0330F705771C0811771808151F
:100450004D082039F700F70EF70C0730F705771C29
:100460008810771888144D081039F700F70E0F30F0
:10047000F705771C08107718081408163F2A402A39
:10048000000008124D080839F700F70CF70CF70CBC
:100490001F30F705771C8811771888154D08043927
:1004A000F700F70CF70C3F30F705771C08117718A9
:1004B00008154D080239F7000310F70C771C881057
:1004C000771888144D080139F800781C081078183E
:1004D000081408166B2A6C2A000008124230F70034
:1004E000F70B702A00000F30831688040530831242
:1004F000CC007920CB0AFE2908008030C800DD201E
:100500004308C9004208C8001030CA00FD21080095
:10051000420884008313431883174530800001305C
:10052000420784008313431883174330800002304E
:100530004207840083134318831755308000080056
:10054000430CC700420CC600C70CC60CC70CC60C37
:100550001F30C7054608F700FA014608C4004208E4
:100560000739C600C701460DF900470DFA00F90D1D
:10057000FA0DF90DFA0DF90DFA0DF90DFA0DE0303D
:10058000F9057908C5003130C7004408C800462085
:100590003230C7004508C80046200800C40144089E
:1005A000073C031CE52A36304407C50044084207CF
:1005B00084008313431883170008C6004508C7004A
:1005C0004608C8004620C40ACF2A3030C700083089
:1005D000C80046203030C700C80146202C30C70074
:1005E000C80146200800CE010408CD004E10831B30
:1005F0004E14470EF038C900C907E23ECA00323E29
:10060000CC0047080F39CA07CA07CC07E93ECB0020
:10061000CB07CB07460E0F39CB07CC07CB0DCC0D44
:10062000CC09CC0D46080F39CC07C90D0730C800DE
:100630000A30CC07CB03031C192BCB07CA03031CBE
:100640001D2BCA07C903031C212BC907C803031CA0
:10065000252B48308400831307304D054D13840744
:100660004C30040203194D170008F700031D402BFE
:100670004D1B402B4D1A522BCD19402B2030432BB4
:10068000CD154D123030F707C7010408C6004710DA
:10069000831B47147708CF009A21460884008313F0
:1006A00047188317840A4D1F302B08008C21B20194
:1006B0002130B100193003178D0000308F00031373
:1006C000A721C3012130C2007D22C3013330C20003
:1006D00088220530B600C3013B30C20088220130B9
:1006E000BE00BF01C0013230CC007920C101013011
:1006F000C1074108273C031CC1014108B600023074
:10070000C300C201A022C3013330C200CE22C30104
:100710004108C2000230C500C4018C21B201213061
:10072000B100083003178D0000308F000310053032
:100730000313C6000B08C7008B13831603178C170F
:100740000C140000000083120313C71B8B1703183F
:10075000D12B03170C087F390313C70003170D08AB
:100760000313C80003170F080313C9004708CF007D
:100770009A21480803178D000313490803178F00B7
:1007800003130B08CA008B13831603178C170C1462
:100790000000000083120313CA1B8B17C60BD12B5A
:1007A000F02B03170C0D0E0D7F390313C700031731
:1007B0000D080313C80003170F080313C9004708E7
:1007C000CF009A21480803178D0003134908031727
:1007D0008F008D0A03198F0A03100313C60B9A2B7F
:1007E000103084004308C7004208C600F3227C3062
:1007F000CF009A21103084004508C7004408C60085
:10080000F322C7012130C600AF30C800DD20470801
:10081000C9004608C8001030CA00FD219630CC003F
:1008200079200230C3000130C200A022C3013B3056
:10083000C200CE229630CC007920772B8A110A1282
:100840004B2C03081F398300FF30A000B201B10117
:1008500083161F149F141F159F1107309C008313CC
:1008600083121D288D2849298C21B2012130B10025
:100870000F3003178D0000308F000313A721C30131
:100880002130C2007D220230B300FA30CC00792042
:08089000B30B452C562B63004D
:02400E00323F3F
:00000001FF
;PIC16F877A
;CRC=0AAB  CREATED="04-nov-16 12:32"
