:1000000000308A00772A0000FF00030E8301A10060
:100010000A08A0008A010408A2007708A300780853
:10002000A4007908A5007A08A6007B08A70083131E
:1000300083128B1E1D280B193028220884002308E8
:10004000F7002408F8002508F9002608FA00270818
:10005000FB0020088A00210E8300FF0E7F0E09009E
:100060008A110A1254280A108A100A118207503481
:1000700052344F344A34453454344F3420344634A7
:10008000413454344534433400340A108A100A1180
:10009000820749344C3455344D3449344E3441345C
:1000A000433441344F3400340108633EBC003C0803
:1000B0008100320833040319612832080319B3039D
:1000C000B203340835040319692834080319B50349
:1000D000B403360837040319712836080319B70327
:1000E000B6030B118A110A121D28DB308316860015
:1000F000973087008312B8009412B812380883161C
:100100008700831238163808831687008312B811C7
:1001100038088316870021308312940040308316FC
:10012000940006118312061583161F149F141F15C1
:100130009F110108C03904388100E03083128B041C
:10014000B501B4018101B701B601AB01AD01B10147
:100150008A110A12882A393084008313000803198F
:10016000BE280630F800F701F70BB428F80BB328C7
:100170007B30F700F70BBA28800BB12800348612C9
:10018000F03083168805831239088039F700770D1F
:10019000F70103187714771C881177188815390828
:1001A0004039F700F70EF70CF70C0330F705771C12
:1001B00008117718081539082039F700F70EF70CE1
:1001C0000730F705771C881077188814390810391C
:1001D000F700F70E0F30F705771C08107718081492
:1001E0000816F228F3280000081239080839F70029
:1001F000F70CF70CF70C1F30F705771C88117718F0
:10020000881539080439F700F70CF70C3F30F7056B
:10021000771C08117718081539080239F700031000
:10022000F70C771C88107718881439080139F80002
:10023000781C08107818081408161E291F290000B9
:1002400008124230F700F70B232900000F30831605
:100250008804831200346430B900AB20E030831688
:1002600088050330831288000816362937290000D4
:1002700008120530B900AB2008163E293F290000BE
:100280000812A630F700F70B43290000081648298A
:100290004929000008124230F700F70B4D290000F1
:1002A00002308800081654295529000008124230EF
:1002B000F700F70B592900002830B900BF200130A2
:1002C000B900BF200230B900AB200C30B900BF200C
:1002D0000630B900BF208A110A12892A8616F0302A
:1002E0008316880583123A088039F700770DF701E5
:1002F00003187714771C8811771888153A08403945
:10030000F700F70EF70CF70C0330F705771C081110
:10031000771808153A082039F700F70EF70C073060
:10032000F705771C8810771888143A081039F700F9
:10033000F70E0F30F705771C081077180814081609
:10034000A129A229000008123A080839F700F70C81
:10035000F70CF70C1F30F705771C881177188815F4
:100360003A080439F700F70CF70C3F30F705771C13
:100370000811771808153A080239F7000310F70C2E
:10038000771C8810771888143A080139F800781C0F
:100390000810781808140816CD29CE290000081274
:1003A0004230F700F70BD22900000F308316880483
:1003B0008312003483160611831206158316061164
:1003C0008312061183160611831206151030F700EA
:1003D000F70BE82900008316061183120611130893
:1003E000C03093008316141CF329061183120615DE
:1003F0001030F700F70BFA2900008A110A12AF2A11
:100400008316061183120615831606118312061130
:1004100083160611831206151030F700F70B0E2A0B
:100420000000831606118312061113080230930090
:100430008316141C192A8312390893008316141C7E
:100440001F2A83123A0893008316141C252A0611CA
:10045000831206151030F700F70B2C2A0000003429
:100460000F30B9008030BA0000226430B900AB20F0
:100470002830B9000630BA0000222930B900B33064
:10048000BA0000222A30B900C030BA000022603021
:10049000B9006430BA0000227030B900BA010022FD
:1004A0002B30B9000130BA0000222C30B900BA015B
:1004B00000220F30B900BA0100228A110A12B02AB4
:1004C00083160910831209108A110A12692B381039
:1004D000380883168700831207108A110A12782BB6
:1004E00083160911831209118A110A12892B8401BA
:1004F00083131F30830583161F149F141F159F112C
:1005000007309C008312A801A901FF30B8007528AC
:100510002B298030B900BF20B90139083320B90A2E
:10052000F700BA006E210D303902031D8D2AAF305D
:10053000B900BF20B90139084520B90AF700BA004F
:100540006E210A303902031D9B2A6430B900AB20AA
:10055000831608148312AA010818AA0ADA29302A75
:1005600083160611831206158316061183120611CF
:1005700083160611831206151030F700F70BBE2AFA
:10058000000083160611831206111308033093002E
:100590008316141CC92A831213082C309300831667
:1005A000141CD02A8312130893018316141CD62A14
:1005B00083121308AC00831606118312061510303F
:1005C000F700F70BE12A00002C30B900BA01002235
:1005D000AC080319322B2C30B900BA0100220C30C0
:1005E000B900BA010022B001831606118312061564
:1005F000831606118312061183160611831206153F
:100600001030F700F70B022B00008316061183123F
:1006100006111308033093008316141C0D2B83124C
:100620001308663093008316141C142B83121308CE
:1006300093018316141C1A2B83121308B00083161F
:100640000611831206151030F700F70B252B00005A
:100650002C30B900BA0100220B30B700B830B60018
:100660003008AD0036083704031D3A2BAC08031DD3
:100670003A2BAD013108FB3E0318BC2B053EBE2BC7
:100680002D1C5A2B34083504031D5A2B0330B5009A
:10069000E830B400AB0803194F2B0030502B013069
:1006A000AB00AB08031D562B8910572B89148316FA
:1006B000891083122D08FF3A01390319632B831621
:1006C0008910831289140130B107BC2B2D1D692BB1
:1006D000602A2D08FF3A04390319722B831609107A
:1006E000831209140130B107BC2B2D1E782B672A09
:1006F0002D08FF3A10390319832B38103808831658
:100700008700831207140130B107BC2B2D1F892BE2
:10071000702A2D08FF3A40390319922B83160911CC
:10072000831209150130B107BC2B2D0803390319B9
:10073000B12B34083504031DB12B0130B500F43062
:10074000B400AB080319A62B0030A72B0130AB0077
:10075000AB08031DAD2B8910AE2B891483168910AD
:1007600083122D08FF3A01390319BA2B8316891019
:1007700083128914B101BC2BB02A63000A148A14B5
:0E0780000A118207402B662B752B862B952BBA
:02400E00723FFF
:00000001FF
;PIC16F877A
